:0D112B00C184C109C1070122000223000098
:10073B002003030207D8C203E548FB3395E0FAEB2D
:10074B0064014A701A854B30AF49EF3395E0FE7C5C
:10075B00007D0A1200888E278F28854A448016EB6D
:10076B0064024A7010852D30AF2CEF3395E0F527DE
:10077B008F28852E440543E54370020542C394E858
:10078B00E542648094834005E4F542F543AF4DEFB9
:10079B003395E0FEEF64294E6006EF642A4E702D10
:1007AB00751002AF10EF3395E0FED3EF9400EE64BB
:1007BB008094804014D2CCE51004FF12115DC2CCA2
:0D07CB00AF1012115D151080DAD28CC2B291
:0107D80022FE
:03000B00020B0ADB
:0F0B0A00C0E0C0D075D000C000C004C006C00756
:100B190030B228AF44EF3395E0FE0534E534AC3309
:100B29007002053314C39FEE6480F8EC648098402A
:100B39000A753300753400C2B2052220B221053D81
:100B4900E53DAE3C7002053C14C39528E527648059
:100B5900F8EE6480984008D2B2753C00753D00E516
:0B0B690022B53007C28C752200D2B20A
:0D0B7400D007D006D004D000D0D0D0E032A1
:1007D9007F9612115DC2097F007E04121144A2099D
:1007E900E433FD7F007E0412111075480175490438
:1007F900754A03754B02754C0A754D29754E057579
:100809004F01752B01752C14752D02752E03E4FF0C
:10081900FE121144E4F532AF32EF3395E0FEC3EF37
:100829009408EE64809480500E74482532F8E6FDF1
:10083900121110053280E07F007E02121144E4F5A6
:1008490032AF32EF3395E0FEC3EF9405EE64809446
:10085900805015E42FFFEE3402FE742B2532F8E6A2
:09086900FD121110053280D922A4
:100F55007F007E041210F5EF24FF92093009030289
:100F650007D9E4F532AF32EF3395E0FEC3EF9408CD
:100F7500EE64809480500E1210F574482532F8A660
:100F850007053280E0E4F532AF32EF3395E0FEC37A
:100F9500EF9405EE648094805015E42FFFEE340243
:100FA500FE1210F5742B2532F8A607053280D922DA
:100E8B00300562C2AFC205E4FFFE121144E4F53235
:100E9B00AF32EF3395E0FEC3EF9408EE648094809D
:100EAB00500E74482532F8E6FD121110053280E021
:100EBB007F007E02121144E4F532AF32EF3395E03E
:100ECB00FEC3EF9405EE648094805015E42FFFEE83
:100EDB003402FE742B2532F8E6FD12111005328018
:060EEB00D9D200D2AF22B3
:100A180075295A752A51752F46D2CC751028AF10F2
:100A2800EF3395E0FED3EF9400EE64809480404E5F
:100A38000529AF29EF3395E0FEC3EF9464EE648097
:100A48009480400375295A052AAF2AEF3395E0FEB2
:100A5800C3EF945AEE648094804003752A50052FA2
:100A6800AF2FEF3395E0FEC3EF9450EE648094808F
:100A78004003752F467F0212115D151080A0C2CC6D
:090A880075291E752A1E752F1E2A
:010A91002242
:100E2100751008AF10EF3395E0FED3EF9400EE6438
:100E31008094804054D2CC752F1D7F0412115D75B2
:100E41002A1D752F14C2CC7F0512115D75291D75E0
:100E51002A14752F1DD2CC7F0512115D75291475C9
:100E61002A1D752F14C2CC7F0512115D75291D75C0
:100E71002A14C2CC7F0412115D752914D2CC7F04CF
:090E810012115DC2CC1510809A1B
:010E8A002245
:10118B00E4F537754701752933E53124F6F52A75F2
:03119B002F3222CE
:10068000120DB4EF24FE605214700302071F2402FF
:10069000600302073AE4F537AF48EF3395E0FEEF29
:1006A00064014E7017052AAD2AED3395E0FCC3EDC9
:1006B000941DEC648094804003752A15EF64024E0B
:1006C0007078052AAF2AEF3395E0FEC3EF943BEE36
:1006D000648094804064752A3522E4F537AF48EF92
:1006E0003395E0FEEF64014E7017152AAD2AED3305
:1006F00095E0FCD3ED9414EC648094805003752A4B
:100700001CEF64024E7033152AAF2AEF3395E0FEDA
:10071000D3EF9434EE64809480501F752A3A22E41B
:10072000F537E52A75F00A120066AFF0EF04F547D9
:0B073000D208E52A240AF52FF531223B
:100C670030081FC208E54975F00A12006685F029A9
:100C7700E54975F00A120066FF75F00A12006685ED
:100C8700F02A120DB4EF24FD602414603E24037093
:100C97003DE4F537D2080549AF49EF3395E0FEC388
:100CA700EF9464EE64809480402475490122E4F552
:100CB70037D2081549AF49EF3395E0FED3EF9400DB
:0F0CC700EE6480948050077549632212118B22CE
:1005C10030081FC208E52B75F00A12006685F02974
:1005D100E52B75F00A120066FF75F00A12006685B8
:1005E100F02A120DB4EF24FD604E14700302067C54
:1005F1002403600302067FE4F537D208052BAF2BF5
:10060100EF3395E0FEC3EF941FEE648094804009C0
:10061100752B01752C14752D02052CAF2CEF33951C
:10062100E0FEEF64194E600CEF641E4E6006EF644D
:10063100234E7043052D803FE4F537D208152BAFCB
:100641002BEF3395E0FED3EF9400EE64809480505D
:1006510009752B1E752C32752D05152CAF2CEF331A
:1006610095E0FEEF64184E600CEF641D4E6006EFDE
:0F06710064224E7002152D752E032212118B225A
:100B8100300823C208E54A75F00A12006685F0298B
:100B9100E54A75F00A120066FF75F00A120066AFA9
:100BA100F0EF240AF52A120DB4EF24FD602414603D
:100BB1003E2403703DE4F537D208054AAF4AEF33CE
:100BC10095E0FEC3EF9464EE648094804024E4F5E4
:100BD1004A22E4F537D208AF4A154AEF3395E0FED1
:100BE100D3EF9400EE648094805007754A6322121B
:030BF100118B2243
:100CD60030081FC208E54B75F00A12006685F02938
:100CE600E54B75F00A120066FF75F00A120066857C
:100CF600F02A120DB4EF24FD602414603E24037024
:100D06003DE4F537D208054BAF4BEF3395E0FEC314
:100D1600EF9464EE648094804024E4F54B22E4F57D
:100D260037D208AF4B154BEF3395E0FED3EF940067
:0F0D3600EE648094805007754B632212118B225C
:100BF400300823C208E54C75F00A12006685F02916
:100C0400E54C75F00A120066FF75F00A120066AF33
:100C1400F0EF240AF52A120DB4EF24FD60241460C9
:100C24003E2403703DE4F537D208AF4C054CEF3356
:100C340095E0FEC3EF941EEE648094804024754CCE
:100C44000522E4F537D208AF4C154CEF3395E0FE9E
:100C5400D3EF9405EE648094805007754C1E2212E5
:030C6400118B22CF
:100FB500300808C208854D29752A1E120DB4EF2484
:100FC500FD602414603E2403703DE4F537D208AF7C
:100FD5004D054DEF3395E0FEC3EF942BEE64809401
:100FE500804024754D2822E4F537D208AF4D154DC4
:100FF500EF3395E0FED3EF9428EE6480948050079C
:08100500754D2B2212118B2204
:100D450030081FC208E54E75F00A12006685F029C5
:100D5500E54E75F00A120066FF75F00A1200668509
:100D6500F02A120DB4EF24FD602414603E240370B4
:100D75003DE4F537D208AF4E054EEF3395E0FEC39F
:100D8500EF941EEE648094804024E4F54E22E4F551
:100D950037D208AF4E154EEF3395E0FED3EF9400F2
:0F0DA500EE648094805007754E1E2212118B222F
:10100D00300808C208854F29752A1E120DB4EF2429
:10101D00FD602414603E2403703DE4F537D20805CD
:10102D004FAF4FEF3395E0FEC3EF9405EE64809420
:10103D00804024754F0122E4F537D208154FAF4F8C
:10104D00EF3395E0FED3EF9400EE6480948050076B
:08105D00754F042212118B22D1
:1004E80030080DC20875291E752A1EE4F545F54623
:1004F800AF29EF3395E0FEEF64064E7031AF2AEF77
:100508003395E0FEEF64064E7024FF7E041211441A
:100518007D017F007E04121110E4FFFE1211447F5A
:10052800007E02121144120E2143C760803CAF299D
:10053800EF3395E0FEEF64034E702FAF2AEF33954B
:10054800E0FEEF64034E7022AF48EF3395E0FEEF14
:1005580064014E7007754802F547800BEF64024E40
:100568007005754801F547120A18120DB4EF24FDFD
:1005780060251460402403703FE4F537AF45054516
:10058800EF3395E0FEC3EF9406EE64809480400359
:1005980075450185452A22E4F537AF460546EF3310
:1005A80095E0FEC3EF9406EE6480948040037546A0
:0905B800018546292212118B2253
:10026D00300018AF4FEF3395E0FEEF64044E70048D
:10027D00C2008007C200E4F547D20430043EAF4F00
:10028D00EF3395E0FEEF64014E7031120996AE38F2
:10029D00AF397C007D6412009A7C007D0A12009AB1
:1002AD008D29AE38AF397C037DE812009A7C007D34
:1002BD000A12009AED240AF52A752F25200403024F
:1002CD000356AF4FEF3395E0FEEF64024E707AE5C3
:1002DD004345427009752F1E752A1E75291EC3E5EB
:1002ED00439401E54264809480400FAE42AF437C5D
:1002FD00007D0A12009A8D29800375291EC3E543DE
:10030D00940AE542648094804016AE42AF437C006F
:10031D007D0A12009A7C007D0A12009A8D2A8003B4
:10032D00752A1EC3E5439464E542648094804016AB
:10033D00AE42AF437C007D6412009A7C007D0A12B0
:10034D00009A8D2F8003752F1E300416AF4FEF339B
:10035D0095E0FEEF64034E7009752914752A147526
:10036D002F14120DB4EF64027006F537F542F54304
:10037D00120DB4C3EF940174809480500630B20313
:10038D0020B007E4F53AF53BF541C3E53B94E0E5D4
:10039D003A648094AE403BE4F53AF53B0541E54EB9
:1003AD006480F8E5416480984028E4F54185293E54
:1003BD00852A3F852F40D2CC752F14752A147529A7
:1003CD00147F6412115DC2CC758F10438F20758719
:0303DD00020022F9
:03001B00020A9244
:100A9200C0E0C0F0C0D075D000C000C004C005C026
:030AA20006C00784
:100AA50020B027AF4CEF3395E0FE7C007D6412004B
:100AB50088C3E5249FEE6480F8E523648098501090
:100AC5000524E524700A0523800675230075240096
:100AD500AF4CEF3395E0FE7C007D64120088EF2477
:100AE500FFFFEE34FFFEEFB52408EEB52304D20375
:040AF5008002C203B6
:100AF900D007D006D005D004D000D0D0D0F0D0E0B7
:010B090032B9
:030063000208721E
:10087200C0E0C0F0C083C082C0D075D000C000C04C
:1008820001C002C003C004C005C006C00785290A12
:10089200852A0B852F0C1210653006080526E526E1
:1008A20070020525AF4EEF3395E0FEC3EF9401EEE3
:1008B20064809480400A053BE53B700A053A800655
:1008C200753A00753B003002243006067535007516
:1008D20036000536E53670020535C394E8E53594F1
:1008E20003400AC202753500753600D205D007D022
:1008F20006D005D004D003D002D001D000D0D0D091
:0809020082D083D0F0D0E03276
:0300530002000E9A
:0D000E00758F00853E29853F2A85402F32E1
:03005B000211B1DE
:0D11B100758F00853E29853F2A85402F322D
:1003E000E4F592F59175B204F5B175CAFFF5C9D27D
:1003F000B0D2B2C2CC120F5512001E120A18120748
:100400003B12026D120E8BE547B40A0050F09004C7
:1004100015F828287302043302048F02049502049D
:100420009B0204A10204CA0204D00204D60204DC26
:100430000204E2120DB4EF24FD602F240270BFE429
:10044000F537C204C200754701752933AF48EF3351
:1004500095E0FEEF64014E7003752A15EF64024EBD
:100460007003752A35752F328094E4F537AF4FEF5E
:100470003395E0FEEF64014E7006754F020203FEF5
:10048000EF64024E60030203FE754F010203FE1289
:1004900006800203FE120C670203FE120B810203A8
:1004A000FEAF48EF3395E0FEEF64014E7006120C8C
:1004B000D60203FEAF48EF3395E0FEEF64024E60D4
:1004C000030203FE1205C10203FE120BF40203FE37
:1004D000120FB50203FE120D450203FE12100D02AB
:0804E00003FE1204E80203FE12
:100EF100C0F9A4B0999282F88090407924301912F7
:100F010002780010FF8883C6A1868EC189B6BF080A
:100F1100034621060E4109F0F7F6FEBF88A1868E31
:100F2100C189C6F08988A1868EC18986C18989084F
:100F310021060E4109C6FEDECEC7E7F7FFFFFFFF20
:100F4100FFFEFEFFFFF7F7F7FFFFFEFFFFFFFFF7D3
:040F5100F3F1F8FCC4
:0B113800030A0000000109000108008C
:10106500E50814601A14602D2402703F7590FFE5A1
:101075000A900EF193F509C2B5D2B3D2B4801175B9
:1010850090FFE50B900EF193F509C2B4D2B3D2B53A
:10109500F5900508227590FFE50C900EF193F50982
:0B10A500C2B3D2B5D2B4F590E4F50858
:0110B000221D
:10119E0043BA8090FEA8743FF053BA7F75DE2F7568
:0311AE00BC8F22D1
:1011750043BC400000E5BC30E5FB53BCDFAFBDEF31
:05118500FEADBEEDFF10
:01118A002242
:10099600750D00750E00750FEF12119E121175126E
:1009A6001175E4F510F511FBFA121175EF2511F525
:1009B60011EE3510F5100BBB00010AEB64084A7006
:1009C600E8AE10E5117803CEA2E713CE13D8F8F5FA
:1009D600118E10AB0DAA0EA90F1200D0FFAEF0EECD
:1009E6003395E0FDFCE4FB7A04F9F81200FBC0063F
:1009F600C007AE10AF11AB07AA06EA3395E0F9F8C7
:100A0600D007D0061210B1EF2490F539EE3401F577
:010A160038A7
:010A170022BC
:10115D00EFD3940074809480400D00007E9C7DD56B
:07116D00DDFEDEFC1F80E93E
:011174002258
:10001E00438E805389F0758A50758CFBC28DD2A9A0
:10002E00438E4053890F758B20758DD1C28FD2AB05
:10003E00D28E438E0475D7A075D61575AF04438E38
:04004E0010D2AF22FB
:100DB40030B70320B664AF4DEF3395E0FEEF6428FF
:100DC4004E6006EF64294E7002D2CCD2067F021226
:100DD400115D20B71F30B7FDC206C3E5269464E554
:100DE40025940040057537028005753701D202E469
:100DF400F525F52620B62130B6FDD202C206C3E59C
:100E0400269464E5259400400575370480057537FC
:0D0E140003D202E4F525F526C2CCAF37224B
:0D11BE00E4F5C7F5C5F5C675C380F5C4227C
:1010F50075C78075F50C75C5018FC4EEFF8FC37577
:0B110500C65A75C6A500AFC20211BE9D
:1011100075C78075F50C75C5028FC4EEFF8FC38D42
:0B112000C275C65A75C6A5000211BEBC
:1011440075C78075F50C75C5038FC4EEFF8FC37525
:09115400C65A75C6A5000211BEC1
:0300000002090AE8
:0C090A00787FE4F6D8FD75814F0209519A
:10006600C2D530F707B2D563F0FF05F030E70CB222
:10007600D5F4048463F0FF05F080018430D502F4E2
:02008600042252
:10008800EF8DF0A4A8F0CF8CF0A428CE8DF0A42E8C
:02009800FE2246
:10009A00C2D5EC30E709B2D5E4C39DFDE49CFCEE81
:1000AA0030E715B2D5E4C39FFFE49EFE12014AC3AE
:1000BA00E49DFDE49CFC800312014A30D507C3E4A9
:0600CA009FFFE49EFE22F0
:1000D000BB010A89828A83E0F5F0A3E022500687FB
:1000E000F009E71922BBFE07E3F5F009E3192289BD
:0B00F000828A83E493F5F074019322F0
:1000FB00E88FF0A4CC8BF0A42CFCE98EF0A42CFCA4
:10010B008AF0EDA42CFCEA8EF0A4CDA8F08BF0A421
:10011B002DCC3825F0FDE98FF0A42CCD35F0FCEB80
:10012B008EF0A4FEA9F0EB8FF0A4CFC5F02ECD3945
:0F013B00FEE43CFCEAA42DCE35F0FDE43CFC22B2
:1010B100C2D5E830E70FB2D5E4C39BFBE49AFAE46A
:1010C10099F9E498F8EC30E717B2D51210E712015C
:1010D100DBE4C39BFBE49AFAE499F9E498F8800312
:1010E1001201DB30D50DE4C39FFFE49EFEE49DFDBC
:0410F100E49CFC225D
:100916000203E0E493A3F8E493A34003F68001F214
:1009260008DFF48029E493A3F85407240CC8C333E2
:10093600C4540F4420C8834004F456800146F6DFB1
:10094600E4800B010204081020408090112BE47E05
:10095600019360BCA3FF543F30E509541FFEE493A6
:10096600A360010ECF54C025E060A840B8E493A36D
:10097600FAE493A3F8E493A3C8C582C8CAC583CA98
:10098600F0A3C8C582C8CAC583CADFE9DEE780BE50
:0111430000AB
:10014A00BC000BBE0029EF8DF084FFADF022E4CC99
:10015A00F875F008EF2FFFEE33FEEC33FCEE9DEC62
:10016A00984005FCEE9DFE0FD5F0E9E4CEFD22EDA8
:10017A00F8F5F0EE8420D21CFEADF075F008EF2FF2
:10018A00FFED33FD4007985006D5F0F222C398FDE3
:05019A000FD5F0EA2280
:10019F0075F008758200EF2FFFEE33FECD33CDCC17
:1001AF0033CCC58233C5829BED9AEC99E58298409A
:1001BF000CF582EE9BFEED9AFDEC99FC0FD5F0D677
:1001CF00E4CEFBE4CDFAE4CCF9A88222B800C1B9A1
:1001DF000059BA002DEC8BF084CFCECDFCE5F0CBDF
:1001EF00F97818EF2FFFEE33FEED33FDEC33FCEB18
:1001FF0033FB10D703994004EB99FB0FD8E5E4F9D3
:10020F00FA227818EF2FFFEE33FEED33FDEC33FCBF
:10021F00C933C910D7059BE99A4007EC9BFCE99AB3
:10022F00F90FD8E0E4C9FAE4CCFB2275F010EF2FF8
:10023F00FFEE33FEED33FDCC33CCC833C810D707F8
:10024F009BEC9AE899400AED9BFDEC9AFCE899F833
:0E025F000FD5F0DAE4CDFBE4CCFAE4C8F922C6
:00000001FF
